{
  "_format": "hh-sol-artifact-1",
  "contractName": "HELPToken",
  "sourceName": "contracts/HelpToken.sol",
  "abi": [
    {
      "inputs": [
        {
          "internalType": "address",
          "name": "_welfareDistributor",
          "type": "address"
        }
      ],
      "stateMutability": "nonpayable",
      "type": "constructor"
    },
    {
      "inputs": [
        {
          "internalType": "address",
          "name": "spender",
          "type": "address"
        },
        {
          "internalType": "uint256",
          "name": "allowance",
          "type": "uint256"
        },
        {
          "internalType": "uint256",
          "name": "needed",
          "type": "uint256"
        }
      ],
      "name": "ERC20InsufficientAllowance",
      "type": "error"
    },
    {
      "inputs": [
        {
          "internalType": "address",
          "name": "sender",
          "type": "address"
        },
        {
          "internalType": "uint256",
          "name": "balance",
          "type": "uint256"
        },
        {
          "internalType": "uint256",
          "name": "needed",
          "type": "uint256"
        }
      ],
      "name": "ERC20InsufficientBalance",
      "type": "error"
    },
    {
      "inputs": [
        {
          "internalType": "address",
          "name": "approver",
          "type": "address"
        }
      ],
      "name": "ERC20InvalidApprover",
      "type": "error"
    },
    {
      "inputs": [
        {
          "internalType": "address",
          "name": "receiver",
          "type": "address"
        }
      ],
      "name": "ERC20InvalidReceiver",
      "type": "error"
    },
    {
      "inputs": [
        {
          "internalType": "address",
          "name": "sender",
          "type": "address"
        }
      ],
      "name": "ERC20InvalidSender",
      "type": "error"
    },
    {
      "inputs": [
        {
          "internalType": "address",
          "name": "spender",
          "type": "address"
        }
      ],
      "name": "ERC20InvalidSpender",
      "type": "error"
    },
    {
      "anonymous": false,
      "inputs": [
        {
          "indexed": true,
          "internalType": "address",
          "name": "owner",
          "type": "address"
        },
        {
          "indexed": true,
          "internalType": "address",
          "name": "spender",
          "type": "address"
        },
        {
          "indexed": false,
          "internalType": "uint256",
          "name": "value",
          "type": "uint256"
        }
      ],
      "name": "Approval",
      "type": "event"
    },
    {
      "anonymous": false,
      "inputs": [
        {
          "indexed": true,
          "internalType": "address",
          "name": "from",
          "type": "address"
        },
        {
          "indexed": true,
          "internalType": "address",
          "name": "to",
          "type": "address"
        },
        {
          "indexed": false,
          "internalType": "uint256",
          "name": "value",
          "type": "uint256"
        }
      ],
      "name": "Transfer",
      "type": "event"
    },
    {
      "inputs": [
        {
          "internalType": "address",
          "name": "owner",
          "type": "address"
        },
        {
          "internalType": "address",
          "name": "spender",
          "type": "address"
        }
      ],
      "name": "allowance",
      "outputs": [
        {
          "internalType": "uint256",
          "name": "",
          "type": "uint256"
        }
      ],
      "stateMutability": "view",
      "type": "function"
    },
    {
      "inputs": [
        {
          "internalType": "address",
          "name": "spender",
          "type": "address"
        },
        {
          "internalType": "uint256",
          "name": "value",
          "type": "uint256"
        }
      ],
      "name": "approve",
      "outputs": [
        {
          "internalType": "bool",
          "name": "",
          "type": "bool"
        }
      ],
      "stateMutability": "nonpayable",
      "type": "function"
    },
    {
      "inputs": [
        {
          "internalType": "address",
          "name": "account",
          "type": "address"
        }
      ],
      "name": "balanceOf",
      "outputs": [
        {
          "internalType": "uint256",
          "name": "",
          "type": "uint256"
        }
      ],
      "stateMutability": "view",
      "type": "function"
    },
    {
      "inputs": [],
      "name": "decimals",
      "outputs": [
        {
          "internalType": "uint8",
          "name": "",
          "type": "uint8"
        }
      ],
      "stateMutability": "view",
      "type": "function"
    },
    {
      "inputs": [
        {
          "internalType": "address",
          "name": "user",
          "type": "address"
        },
        {
          "internalType": "uint256",
          "name": "amount",
          "type": "uint256"
        }
      ],
      "name": "deposit",
      "outputs": [],
      "stateMutability": "nonpayable",
      "type": "function"
    },
    {
      "inputs": [
        {
          "internalType": "address",
          "name": "recipient",
          "type": "address"
        },
        {
          "internalType": "uint256",
          "name": "amount",
          "type": "uint256"
        }
      ],
      "name": "distribute",
      "outputs": [],
      "stateMutability": "nonpayable",
      "type": "function"
    },
    {
      "inputs": [
        {
          "internalType": "address",
          "name": "user",
          "type": "address"
        }
      ],
      "name": "getBalance",
      "outputs": [
        {
          "internalType": "uint256",
          "name": "",
          "type": "uint256"
        }
      ],
      "stateMutability": "view",
      "type": "function"
    },
    {
      "inputs": [
        {
          "internalType": "address",
          "name": "retailer",
          "type": "address"
        }
      ],
      "name": "getRetailerBalance",
      "outputs": [
        {
          "internalType": "uint256",
          "name": "",
          "type": "uint256"
        }
      ],
      "stateMutability": "view",
      "type": "function"
    },
    {
      "inputs": [],
      "name": "name",
      "outputs": [
        {
          "internalType": "string",
          "name": "",
          "type": "string"
        }
      ],
      "stateMutability": "view",
      "type": "function"
    },
    {
      "inputs": [
        {
          "internalType": "address",
          "name": "",
          "type": "address"
        }
      ],
      "name": "retailerBalances",
      "outputs": [
        {
          "internalType": "uint256",
          "name": "",
          "type": "uint256"
        }
      ],
      "stateMutability": "view",
      "type": "function"
    },
    {
      "inputs": [
        {
          "internalType": "address",
          "name": "retailer",
          "type": "address"
        },
        {
          "internalType": "uint256",
          "name": "amount",
          "type": "uint256"
        }
      ],
      "name": "spendFunds",
      "outputs": [],
      "stateMutability": "nonpayable",
      "type": "function"
    },
    {
      "inputs": [],
      "name": "symbol",
      "outputs": [
        {
          "internalType": "string",
          "name": "",
          "type": "string"
        }
      ],
      "stateMutability": "view",
      "type": "function"
    },
    {
      "inputs": [],
      "name": "totalSupply",
      "outputs": [
        {
          "internalType": "uint256",
          "name": "",
          "type": "uint256"
        }
      ],
      "stateMutability": "view",
      "type": "function"
    },
    {
      "inputs": [
        {
          "internalType": "address",
          "name": "to",
          "type": "address"
        },
        {
          "internalType": "uint256",
          "name": "value",
          "type": "uint256"
        }
      ],
      "name": "transfer",
      "outputs": [
        {
          "internalType": "bool",
          "name": "",
          "type": "bool"
        }
      ],
      "stateMutability": "nonpayable",
      "type": "function"
    },
    {
      "inputs": [
        {
          "internalType": "address",
          "name": "from",
          "type": "address"
        },
        {
          "internalType": "address",
          "name": "to",
          "type": "address"
        },
        {
          "internalType": "uint256",
          "name": "value",
          "type": "uint256"
        }
      ],
      "name": "transferFrom",
      "outputs": [
        {
          "internalType": "bool",
          "name": "",
          "type": "bool"
        }
      ],
      "stateMutability": "nonpayable",
      "type": "function"
    },
    {
      "inputs": [],
      "name": "welfareDistributor",
      "outputs": [
        {
          "internalType": "address",
          "name": "",
          "type": "address"
        }
      ],
      "stateMutability": "view",
      "type": "function"
    }
  ],
  "bytecode": "0x60806040523480156200001157600080fd5b5060405162001e7338038062001e73833981810160405281019062000037919062000476565b6040518060400160405280600a81526020017f48454c5020546f6b656e000000000000000000000000000000000000000000008152506040518060400160405280600481526020017f68544b4e000000000000000000000000000000000000000000000000000000008152508160039081620000b4919062000722565b508060049081620000c6919062000722565b50505080600660006101000a81548173ffffffffffffffffffffffffffffffffffffffff021916908373ffffffffffffffffffffffffffffffffffffffff16021790555062000148600660009054906101000a900473ffffffffffffffffffffffffffffffffffffffff1669d3c21bcecceda10000006200014f60201b60201c565b506200090c565b600073ffffffffffffffffffffffffffffffffffffffff168273ffffffffffffffffffffffffffffffffffffffff1603620001c45760006040517fec442f05000000000000000000000000000000000000000000000000000000008152600401620001bb91906200081a565b60405180910390fd5b620001d860008383620001dc60201b60201c565b5050565b600073ffffffffffffffffffffffffffffffffffffffff168373ffffffffffffffffffffffffffffffffffffffff16036200023257806002600082825462000225919062000866565b9250508190555062000308565b60008060008573ffffffffffffffffffffffffffffffffffffffff1673ffffffffffffffffffffffffffffffffffffffff16815260200190815260200160002054905081811015620002c1578381836040517fe450d38c000000000000000000000000000000000000000000000000000000008152600401620002b893929190620008b2565b60405180910390fd5b8181036000808673ffffffffffffffffffffffffffffffffffffffff1673ffffffffffffffffffffffffffffffffffffffff16815260200190815260200160002081905550505b600073ffffffffffffffffffffffffffffffffffffffff168273ffffffffffffffffffffffffffffffffffffffff1603620003535780600260008282540392505081905550620003a0565b806000808473ffffffffffffffffffffffffffffffffffffffff1673ffffffffffffffffffffffffffffffffffffffff168152602001908152602001600020600082825401925050819055505b8173ffffffffffffffffffffffffffffffffffffffff168373ffffffffffffffffffffffffffffffffffffffff167fddf252ad1be2c89b69c2b068fc378daa952ba7f163c4a11628f55a4df523b3ef83604051620003ff9190620008ef565b60405180910390a3505050565b600080fd5b600073ffffffffffffffffffffffffffffffffffffffff82169050919050565b60006200043e8262000411565b9050919050565b620004508162000431565b81146200045c57600080fd5b50565b600081519050620004708162000445565b92915050565b6000602082840312156200048f576200048e6200040c565b5b60006200049f848285016200045f565b91505092915050565b600081519050919050565b7f4e487b7100000000000000000000000000000000000000000000000000000000600052604160045260246000fd5b7f4e487b7100000000000000000000000000000000000000000000000000000000600052602260045260246000fd5b600060028204905060018216806200052a57607f821691505b60208210810362000540576200053f620004e2565b5b50919050565b60008190508160005260206000209050919050565b60006020601f8301049050919050565b600082821b905092915050565b600060088302620005aa7fffffffffffffffffffffffffffffffffffffffffffffffffffffffffffffffff826200056b565b620005b686836200056b565b95508019841693508086168417925050509392505050565b6000819050919050565b6000819050919050565b600062000603620005fd620005f784620005ce565b620005d8565b620005ce565b9050919050565b6000819050919050565b6200061f83620005e2565b620006376200062e826200060a565b84845462000578565b825550505050565b600090565b6200064e6200063f565b6200065b81848462000614565b505050565b5b8181101562000683576200067760008262000644565b60018101905062000661565b5050565b601f821115620006d2576200069c8162000546565b620006a7846200055b565b81016020851015620006b7578190505b620006cf620006c6856200055b565b83018262000660565b50505b505050565b600082821c905092915050565b6000620006f760001984600802620006d7565b1980831691505092915050565b6000620007128383620006e4565b9150826002028217905092915050565b6200072d82620004a8565b67ffffffffffffffff811115620007495762000748620004b3565b5b62000755825462000511565b6200076282828562000687565b600060209050601f8311600181146200079a576000841562000785578287015190505b62000791858262000704565b86555062000801565b601f198416620007aa8662000546565b60005b82811015620007d457848901518255600182019150602085019450602081019050620007ad565b86831015620007f45784890151620007f0601f891682620006e4565b8355505b6001600288020188555050505b505050505050565b620008148162000431565b82525050565b600060208201905062000831600083018462000809565b92915050565b7f4e487b7100000000000000000000000000000000000000000000000000000000600052601160045260246000fd5b60006200087382620005ce565b91506200088083620005ce565b92508282019050808211156200089b576200089a62000837565b5b92915050565b620008ac81620005ce565b82525050565b6000606082019050620008c9600083018662000809565b620008d86020830185620008a1565b620008e76040830184620008a1565b949350505050565b6000602082019050620009066000830184620008a1565b92915050565b611557806200091c6000396000f3fe608060405234801561001057600080fd5b50600436106101005760003560e01c806370a0823111610097578063a9059cbb11610066578063a9059cbb146102c3578063dd62ed3e146102f3578063f8b2cb4f14610323578063fb9321081461035357610100565b806370a08231146102275780637f2ab4051461025757806395d89b4114610275578063a1e92c951461029357610100565b806323b872dd116100d357806323b872dd146101a1578063313ce567146101d157806347e7ef24146101ef5780635070ad951461020b57610100565b8063036ed0eb1461010557806306fdde0314610135578063095ea7b31461015357806318160ddd14610183575b600080fd5b61011f600480360381019061011a9190610f82565b61036f565b60405161012c9190610fc8565b60405180910390f35b61013d6103b8565b60405161014a9190611073565b60405180910390f35b61016d600480360381019061016891906110c1565b61044a565b60405161017a919061111c565b60405180910390f35b61018b61046d565b6040516101989190610fc8565b60405180910390f35b6101bb60048036038101906101b69190611137565b610477565b6040516101c8919061111c565b60405180910390f35b6101d96104a6565b6040516101e691906111a6565b60405180910390f35b610209600480360381019061020491906110c1565b6104af565b005b610225600480360381019061022091906110c1565b61054d565b005b610241600480360381019061023c9190610f82565b6105fd565b60405161024e9190610fc8565b60405180910390f35b61025f610645565b60405161026c91906111d0565b60405180910390f35b61027d61066b565b60405161028a9190611073565b60405180910390f35b6102ad60048036038101906102a89190610f82565b6106fd565b6040516102ba9190610fc8565b60405180910390f35b6102dd60048036038101906102d891906110c1565b610715565b6040516102ea919061111c565b60405180910390f35b61030d600480360381019061030891906111eb565b610738565b60405161031a9190610fc8565b60405180910390f35b61033d60048036038101906103389190610f82565b6107bf565b60405161034a9190610fc8565b60405180910390f35b61036d600480360381019061036891906110c1565b6107d1565b005b6000600560008373ffffffffffffffffffffffffffffffffffffffff1673ffffffffffffffffffffffffffffffffffffffff168152602001908152602001600020549050919050565b6060600380546103c79061125a565b80601f01602080910402602001604051908101604052809291908181526020018280546103f39061125a565b80156104405780601f1061041557610100808354040283529160200191610440565b820191906000526020600020905b81548152906001019060200180831161042357829003601f168201915b5050505050905090565b6000806104556108ff565b9050610462818585610907565b600191505092915050565b6000600254905090565b6000806104826108ff565b905061048f858285610919565b61049a8585856109ad565b60019150509392505050565b60006012905090565b600660009054906101000a900473ffffffffffffffffffffffffffffffffffffffff1673ffffffffffffffffffffffffffffffffffffffff163373ffffffffffffffffffffffffffffffffffffffff161461053f576040517f08c379a0000000000000000000000000000000000000000000000000000000008152600401610536906112fd565b60405180910390fd5b6105498282610aa1565b5050565b80610557336105fd565b1015610598576040517f08c379a000000000000000000000000000000000000000000000000000000000815260040161058f90611369565b60405180910390fd5b6105a33383836109ad565b80600560008473ffffffffffffffffffffffffffffffffffffffff1673ffffffffffffffffffffffffffffffffffffffff16815260200190815260200160002060008282546105f291906113b8565b925050819055505050565b60008060008373ffffffffffffffffffffffffffffffffffffffff1673ffffffffffffffffffffffffffffffffffffffff168152602001908152602001600020549050919050565b600660009054906101000a900473ffffffffffffffffffffffffffffffffffffffff1681565b60606004805461067a9061125a565b80601f01602080910402602001604051908101604052809291908181526020018280546106a69061125a565b80156106f35780601f106106c8576101008083540402835291602001916106f3565b820191906000526020600020905b8154815290600101906020018083116106d657829003601f168201915b5050505050905090565b60056020528060005260406000206000915090505481565b6000806107206108ff565b905061072d8185856109ad565b600191505092915050565b6000600160008473ffffffffffffffffffffffffffffffffffffffff1673ffffffffffffffffffffffffffffffffffffffff16815260200190815260200160002060008373ffffffffffffffffffffffffffffffffffffffff1673ffffffffffffffffffffffffffffffffffffffff16815260200190815260200160002054905092915050565b60006107ca826105fd565b9050919050565b600660009054906101000a900473ffffffffffffffffffffffffffffffffffffffff1673ffffffffffffffffffffffffffffffffffffffff163373ffffffffffffffffffffffffffffffffffffffff1614610861576040517f08c379a00000000000000000000000000000000000000000000000000000000081526004016108589061145e565b60405180910390fd5b8061088d600660009054906101000a900473ffffffffffffffffffffffffffffffffffffffff166105fd565b10156108ce576040517f08c379a00000000000000000000000000000000000000000000000000000000081526004016108c5906114ca565b60405180910390fd5b6108fb600660009054906101000a900473ffffffffffffffffffffffffffffffffffffffff1683836109ad565b5050565b600033905090565b6109148383836001610b23565b505050565b60006109258484610738565b90507fffffffffffffffffffffffffffffffffffffffffffffffffffffffffffffffff81146109a75781811015610997578281836040517ffb8f41b200000000000000000000000000000000000000000000000000000000815260040161098e939291906114ea565b60405180910390fd5b6109a684848484036000610b23565b5b50505050565b600073ffffffffffffffffffffffffffffffffffffffff168373ffffffffffffffffffffffffffffffffffffffff1603610a1f5760006040517f96c6fd1e000000000000000000000000000000000000000000000000000000008152600401610a1691906111d0565b60405180910390fd5b600073ffffffffffffffffffffffffffffffffffffffff168273ffffffffffffffffffffffffffffffffffffffff1603610a915760006040517fec442f05000000000000000000000000000000000000000000000000000000008152600401610a8891906111d0565b60405180910390fd5b610a9c838383610cfa565b505050565b600073ffffffffffffffffffffffffffffffffffffffff168273ffffffffffffffffffffffffffffffffffffffff1603610b135760006040517fec442f05000000000000000000000000000000000000000000000000000000008152600401610b0a91906111d0565b60405180910390fd5b610b1f60008383610cfa565b5050565b600073ffffffffffffffffffffffffffffffffffffffff168473ffffffffffffffffffffffffffffffffffffffff1603610b955760006040517fe602df05000000000000000000000000000000000000000000000000000000008152600401610b8c91906111d0565b60405180910390fd5b600073ffffffffffffffffffffffffffffffffffffffff168373ffffffffffffffffffffffffffffffffffffffff1603610c075760006040517f94280d62000000000000000000000000000000000000000000000000000000008152600401610bfe91906111d0565b60405180910390fd5b81600160008673ffffffffffffffffffffffffffffffffffffffff1673ffffffffffffffffffffffffffffffffffffffff16815260200190815260200160002060008573ffffffffffffffffffffffffffffffffffffffff1673ffffffffffffffffffffffffffffffffffffffff168152602001908152602001600020819055508015610cf4578273ffffffffffffffffffffffffffffffffffffffff168473ffffffffffffffffffffffffffffffffffffffff167f8c5be1e5ebec7d5bd14f71427d1e84f3dd0314c0f7b2291e5b200ac8c7c3b92584604051610ceb9190610fc8565b60405180910390a35b50505050565b600073ffffffffffffffffffffffffffffffffffffffff168373ffffffffffffffffffffffffffffffffffffffff1603610d4c578060026000828254610d4091906113b8565b92505081905550610e1f565b60008060008573ffffffffffffffffffffffffffffffffffffffff1673ffffffffffffffffffffffffffffffffffffffff16815260200190815260200160002054905081811015610dd8578381836040517fe450d38c000000000000000000000000000000000000000000000000000000008152600401610dcf939291906114ea565b60405180910390fd5b8181036000808673ffffffffffffffffffffffffffffffffffffffff1673ffffffffffffffffffffffffffffffffffffffff16815260200190815260200160002081905550505b600073ffffffffffffffffffffffffffffffffffffffff168273ffffffffffffffffffffffffffffffffffffffff1603610e685780600260008282540392505081905550610eb5565b806000808473ffffffffffffffffffffffffffffffffffffffff1673ffffffffffffffffffffffffffffffffffffffff168152602001908152602001600020600082825401925050819055505b8173ffffffffffffffffffffffffffffffffffffffff168373ffffffffffffffffffffffffffffffffffffffff167fddf252ad1be2c89b69c2b068fc378daa952ba7f163c4a11628f55a4df523b3ef83604051610f129190610fc8565b60405180910390a3505050565b600080fd5b600073ffffffffffffffffffffffffffffffffffffffff82169050919050565b6000610f4f82610f24565b9050919050565b610f5f81610f44565b8114610f6a57600080fd5b50565b600081359050610f7c81610f56565b92915050565b600060208284031215610f9857610f97610f1f565b5b6000610fa684828501610f6d565b91505092915050565b6000819050919050565b610fc281610faf565b82525050565b6000602082019050610fdd6000830184610fb9565b92915050565b600081519050919050565b600082825260208201905092915050565b60005b8381101561101d578082015181840152602081019050611002565b60008484015250505050565b6000601f19601f8301169050919050565b600061104582610fe3565b61104f8185610fee565b935061105f818560208601610fff565b61106881611029565b840191505092915050565b6000602082019050818103600083015261108d818461103a565b905092915050565b61109e81610faf565b81146110a957600080fd5b50565b6000813590506110bb81611095565b92915050565b600080604083850312156110d8576110d7610f1f565b5b60006110e685828601610f6d565b92505060206110f7858286016110ac565b9150509250929050565b60008115159050919050565b61111681611101565b82525050565b6000602082019050611131600083018461110d565b92915050565b6000806000606084860312156111505761114f610f1f565b5b600061115e86828701610f6d565b935050602061116f86828701610f6d565b9250506040611180868287016110ac565b9150509250925092565b600060ff82169050919050565b6111a08161118a565b82525050565b60006020820190506111bb6000830184611197565b92915050565b6111ca81610f44565b82525050565b60006020820190506111e560008301846111c1565b92915050565b6000806040838503121561120257611201610f1f565b5b600061121085828601610f6d565b925050602061122185828601610f6d565b9150509250929050565b7f4e487b7100000000000000000000000000000000000000000000000000000000600052602260045260246000fd5b6000600282049050600182168061127257607f821691505b6020821081036112855761128461122b565b5b50919050565b7f4f6e6c79207468652077656c66617265206469737472696275746f722063616e60008201527f206465706f73697420746f6b656e730000000000000000000000000000000000602082015250565b60006112e7602f83610fee565b91506112f28261128b565b604082019050919050565b60006020820190508181036000830152611316816112da565b9050919050565b7f496e73756666696369656e742062616c616e63652e0000000000000000000000600082015250565b6000611353601583610fee565b915061135e8261131d565b602082019050919050565b6000602082019050818103600083015261138281611346565b9050919050565b7f4e487b7100000000000000000000000000000000000000000000000000000000600052601160045260246000fd5b60006113c382610faf565b91506113ce83610faf565b92508282019050808211156113e6576113e5611389565b5b92915050565b7f4f6e6c79207468652077656c66617265206469737472696275746f722063616e60008201527f206469737472696275746520746f6b656e730000000000000000000000000000602082015250565b6000611448603283610fee565b9150611453826113ec565b604082019050919050565b600060208201905081810360008301526114778161143b565b9050919050565b7f4e6f7420656e6f75676820746f6b656e7320746f206469737472696275746500600082015250565b60006114b4601f83610fee565b91506114bf8261147e565b602082019050919050565b600060208201905081810360008301526114e3816114a7565b9050919050565b60006060820190506114ff60008301866111c1565b61150c6020830185610fb9565b6115196040830184610fb9565b94935050505056fea26469706673582212208a3199eb94f96b807b892f6c3e381bae4ed212ba453fc6e2f527412af32d6fa764736f6c63430008180033",
  "linkReferences": {},
  "deployedLinkReferences": {}
}