{
  "_format": "hh-sol-artifact-1",
  "contractName": "HELPToken",
  "sourceName": "contracts/HelpToken.sol",
  "abi": [
    {
      "inputs": [],
      "stateMutability": "nonpayable",
      "type": "constructor"
    },
    {
      "inputs": [
        {
          "internalType": "address",
          "name": "spender",
          "type": "address"
        },
        {
          "internalType": "uint256",
          "name": "allowance",
          "type": "uint256"
        },
        {
          "internalType": "uint256",
          "name": "needed",
          "type": "uint256"
        }
      ],
      "name": "ERC20InsufficientAllowance",
      "type": "error"
    },
    {
      "inputs": [
        {
          "internalType": "address",
          "name": "sender",
          "type": "address"
        },
        {
          "internalType": "uint256",
          "name": "balance",
          "type": "uint256"
        },
        {
          "internalType": "uint256",
          "name": "needed",
          "type": "uint256"
        }
      ],
      "name": "ERC20InsufficientBalance",
      "type": "error"
    },
    {
      "inputs": [
        {
          "internalType": "address",
          "name": "approver",
          "type": "address"
        }
      ],
      "name": "ERC20InvalidApprover",
      "type": "error"
    },
    {
      "inputs": [
        {
          "internalType": "address",
          "name": "receiver",
          "type": "address"
        }
      ],
      "name": "ERC20InvalidReceiver",
      "type": "error"
    },
    {
      "inputs": [
        {
          "internalType": "address",
          "name": "sender",
          "type": "address"
        }
      ],
      "name": "ERC20InvalidSender",
      "type": "error"
    },
    {
      "inputs": [
        {
          "internalType": "address",
          "name": "spender",
          "type": "address"
        }
      ],
      "name": "ERC20InvalidSpender",
      "type": "error"
    },
    {
      "anonymous": false,
      "inputs": [
        {
          "indexed": true,
          "internalType": "address",
          "name": "owner",
          "type": "address"
        },
        {
          "indexed": true,
          "internalType": "address",
          "name": "spender",
          "type": "address"
        },
        {
          "indexed": false,
          "internalType": "uint256",
          "name": "value",
          "type": "uint256"
        }
      ],
      "name": "Approval",
      "type": "event"
    },
    {
      "anonymous": false,
      "inputs": [
        {
          "indexed": true,
          "internalType": "address",
          "name": "from",
          "type": "address"
        },
        {
          "indexed": true,
          "internalType": "address",
          "name": "to",
          "type": "address"
        },
        {
          "indexed": false,
          "internalType": "uint256",
          "name": "value",
          "type": "uint256"
        }
      ],
      "name": "Transfer",
      "type": "event"
    },
    {
      "inputs": [
        {
          "internalType": "address",
          "name": "owner",
          "type": "address"
        },
        {
          "internalType": "address",
          "name": "spender",
          "type": "address"
        }
      ],
      "name": "allowance",
      "outputs": [
        {
          "internalType": "uint256",
          "name": "",
          "type": "uint256"
        }
      ],
      "stateMutability": "view",
      "type": "function"
    },
    {
      "inputs": [
        {
          "internalType": "address",
          "name": "spender",
          "type": "address"
        },
        {
          "internalType": "uint256",
          "name": "value",
          "type": "uint256"
        }
      ],
      "name": "approve",
      "outputs": [
        {
          "internalType": "bool",
          "name": "",
          "type": "bool"
        }
      ],
      "stateMutability": "nonpayable",
      "type": "function"
    },
    {
      "inputs": [
        {
          "internalType": "address",
          "name": "account",
          "type": "address"
        }
      ],
      "name": "balanceOf",
      "outputs": [
        {
          "internalType": "uint256",
          "name": "",
          "type": "uint256"
        }
      ],
      "stateMutability": "view",
      "type": "function"
    },
    {
      "inputs": [],
      "name": "decimals",
      "outputs": [
        {
          "internalType": "uint8",
          "name": "",
          "type": "uint8"
        }
      ],
      "stateMutability": "view",
      "type": "function"
    },
    {
      "inputs": [
        {
          "internalType": "address",
          "name": "user",
          "type": "address"
        },
        {
          "internalType": "uint256",
          "name": "amount",
          "type": "uint256"
        }
      ],
      "name": "deposit",
      "outputs": [],
      "stateMutability": "nonpayable",
      "type": "function"
    },
    {
      "inputs": [
        {
          "internalType": "address",
          "name": "user",
          "type": "address"
        }
      ],
      "name": "getBalance",
      "outputs": [
        {
          "internalType": "uint256",
          "name": "",
          "type": "uint256"
        }
      ],
      "stateMutability": "view",
      "type": "function"
    },
    {
      "inputs": [
        {
          "internalType": "address",
          "name": "retailer",
          "type": "address"
        }
      ],
      "name": "getRetailerBalance",
      "outputs": [
        {
          "internalType": "uint256",
          "name": "",
          "type": "uint256"
        }
      ],
      "stateMutability": "view",
      "type": "function"
    },
    {
      "inputs": [],
      "name": "name",
      "outputs": [
        {
          "internalType": "string",
          "name": "",
          "type": "string"
        }
      ],
      "stateMutability": "view",
      "type": "function"
    },
    {
      "inputs": [
        {
          "internalType": "address",
          "name": "",
          "type": "address"
        }
      ],
      "name": "retailerBalances",
      "outputs": [
        {
          "internalType": "uint256",
          "name": "",
          "type": "uint256"
        }
      ],
      "stateMutability": "view",
      "type": "function"
    },
    {
      "inputs": [
        {
          "internalType": "address",
          "name": "retailer",
          "type": "address"
        },
        {
          "internalType": "uint256",
          "name": "amount",
          "type": "uint256"
        }
      ],
      "name": "spendFunds",
      "outputs": [],
      "stateMutability": "nonpayable",
      "type": "function"
    },
    {
      "inputs": [],
      "name": "symbol",
      "outputs": [
        {
          "internalType": "string",
          "name": "",
          "type": "string"
        }
      ],
      "stateMutability": "view",
      "type": "function"
    },
    {
      "inputs": [],
      "name": "totalSupply",
      "outputs": [
        {
          "internalType": "uint256",
          "name": "",
          "type": "uint256"
        }
      ],
      "stateMutability": "view",
      "type": "function"
    },
    {
      "inputs": [
        {
          "internalType": "address",
          "name": "to",
          "type": "address"
        },
        {
          "internalType": "uint256",
          "name": "value",
          "type": "uint256"
        }
      ],
      "name": "transfer",
      "outputs": [
        {
          "internalType": "bool",
          "name": "",
          "type": "bool"
        }
      ],
      "stateMutability": "nonpayable",
      "type": "function"
    },
    {
      "inputs": [
        {
          "internalType": "address",
          "name": "from",
          "type": "address"
        },
        {
          "internalType": "address",
          "name": "to",
          "type": "address"
        },
        {
          "internalType": "uint256",
          "name": "value",
          "type": "uint256"
        }
      ],
      "name": "transferFrom",
      "outputs": [
        {
          "internalType": "bool",
          "name": "",
          "type": "bool"
        }
      ],
      "stateMutability": "nonpayable",
      "type": "function"
    }
  ],
  "bytecode": "0x60806040523480156200001157600080fd5b506040518060400160405280600a81526020017f48454c5020546f6b656e000000000000000000000000000000000000000000008152506040518060400160405280600481526020017f68544b4e0000000000000000000000000000000000000000000000000000000081525081600390816200008f9190620005fd565b508060049081620000a19190620005fd565b505050620000c03369d3c21bcecceda1000000620000c660201b60201c565b6200081b565b600073ffffffffffffffffffffffffffffffffffffffff168273ffffffffffffffffffffffffffffffffffffffff16036200013b5760006040517fec442f0500000000000000000000000000000000000000000000000000000000815260040162000132919062000729565b60405180910390fd5b6200014f600083836200015360201b60201c565b5050565b600073ffffffffffffffffffffffffffffffffffffffff168373ffffffffffffffffffffffffffffffffffffffff1603620001a95780600260008282546200019c919062000775565b925050819055506200027f565b60008060008573ffffffffffffffffffffffffffffffffffffffff1673ffffffffffffffffffffffffffffffffffffffff1681526020019081526020016000205490508181101562000238578381836040517fe450d38c0000000000000000000000000000000000000000000000000000000081526004016200022f93929190620007c1565b60405180910390fd5b8181036000808673ffffffffffffffffffffffffffffffffffffffff1673ffffffffffffffffffffffffffffffffffffffff16815260200190815260200160002081905550505b600073ffffffffffffffffffffffffffffffffffffffff168273ffffffffffffffffffffffffffffffffffffffff1603620002ca578060026000828254039250508190555062000317565b806000808473ffffffffffffffffffffffffffffffffffffffff1673ffffffffffffffffffffffffffffffffffffffff168152602001908152602001600020600082825401925050819055505b8173ffffffffffffffffffffffffffffffffffffffff168373ffffffffffffffffffffffffffffffffffffffff167fddf252ad1be2c89b69c2b068fc378daa952ba7f163c4a11628f55a4df523b3ef83604051620003769190620007fe565b60405180910390a3505050565b600081519050919050565b7f4e487b7100000000000000000000000000000000000000000000000000000000600052604160045260246000fd5b7f4e487b7100000000000000000000000000000000000000000000000000000000600052602260045260246000fd5b600060028204905060018216806200040557607f821691505b6020821081036200041b576200041a620003bd565b5b50919050565b60008190508160005260206000209050919050565b60006020601f8301049050919050565b600082821b905092915050565b600060088302620004857fffffffffffffffffffffffffffffffffffffffffffffffffffffffffffffffff8262000446565b62000491868362000446565b95508019841693508086168417925050509392505050565b6000819050919050565b6000819050919050565b6000620004de620004d8620004d284620004a9565b620004b3565b620004a9565b9050919050565b6000819050919050565b620004fa83620004bd565b620005126200050982620004e5565b84845462000453565b825550505050565b600090565b620005296200051a565b62000536818484620004ef565b505050565b5b818110156200055e57620005526000826200051f565b6001810190506200053c565b5050565b601f821115620005ad57620005778162000421565b620005828462000436565b8101602085101562000592578190505b620005aa620005a18562000436565b8301826200053b565b50505b505050565b600082821c905092915050565b6000620005d260001984600802620005b2565b1980831691505092915050565b6000620005ed8383620005bf565b9150826002028217905092915050565b620006088262000383565b67ffffffffffffffff8111156200062457620006236200038e565b5b620006308254620003ec565b6200063d82828562000562565b600060209050601f83116001811462000675576000841562000660578287015190505b6200066c8582620005df565b865550620006dc565b601f198416620006858662000421565b60005b82811015620006af5784890151825560018201915060208501945060208101905062000688565b86831015620006cf5784890151620006cb601f891682620005bf565b8355505b6001600288020188555050505b505050505050565b600073ffffffffffffffffffffffffffffffffffffffff82169050919050565b60006200071182620006e4565b9050919050565b620007238162000704565b82525050565b600060208201905062000740600083018462000718565b92915050565b7f4e487b7100000000000000000000000000000000000000000000000000000000600052601160045260246000fd5b60006200078282620004a9565b91506200078f83620004a9565b9250828201905080821115620007aa57620007a962000746565b5b92915050565b620007bb81620004a9565b82525050565b6000606082019050620007d8600083018662000718565b620007e76020830185620007b0565b620007f66040830184620007b0565b949350505050565b6000602082019050620008156000830184620007b0565b92915050565b611193806200082b6000396000f3fe608060405234801561001057600080fd5b50600436106100ea5760003560e01c80635070ad951161008c578063a1e92c9511610066578063a1e92c951461025f578063a9059cbb1461028f578063dd62ed3e146102bf578063f8b2cb4f146102ef576100ea565b80635070ad95146101f557806370a082311461021157806395d89b4114610241576100ea565b806318160ddd116100c857806318160ddd1461016d57806323b872dd1461018b578063313ce567146101bb57806347e7ef24146101d9576100ea565b8063036ed0eb146100ef57806306fdde031461011f578063095ea7b31461013d575b600080fd5b61010960048036038101906101049190610d4e565b61031f565b6040516101169190610d94565b60405180910390f35b610127610368565b6040516101349190610e3f565b60405180910390f35b61015760048036038101906101529190610e8d565b6103fa565b6040516101649190610ee8565b60405180910390f35b61017561041d565b6040516101829190610d94565b60405180910390f35b6101a560048036038101906101a09190610f03565b610427565b6040516101b29190610ee8565b60405180910390f35b6101c3610456565b6040516101d09190610f72565b60405180910390f35b6101f360048036038101906101ee9190610e8d565b61045f565b005b61020f600480360381019061020a9190610e8d565b61046d565b005b61022b60048036038101906102269190610d4e565b61051d565b6040516102389190610d94565b60405180910390f35b610249610565565b6040516102569190610e3f565b60405180910390f35b61027960048036038101906102749190610d4e565b6105f7565b6040516102869190610d94565b60405180910390f35b6102a960048036038101906102a49190610e8d565b61060f565b6040516102b69190610ee8565b60405180910390f35b6102d960048036038101906102d49190610f8d565b610632565b6040516102e69190610d94565b60405180910390f35b61030960048036038101906103049190610d4e565b6106b9565b6040516103169190610d94565b60405180910390f35b6000600560008373ffffffffffffffffffffffffffffffffffffffff1673ffffffffffffffffffffffffffffffffffffffff168152602001908152602001600020549050919050565b60606003805461037790610ffc565b80601f01602080910402602001604051908101604052809291908181526020018280546103a390610ffc565b80156103f05780601f106103c5576101008083540402835291602001916103f0565b820191906000526020600020905b8154815290600101906020018083116103d357829003601f168201915b5050505050905090565b6000806104056106cb565b90506104128185856106d3565b600191505092915050565b6000600254905090565b6000806104326106cb565b905061043f8582856106e5565b61044a858585610779565b60019150509392505050565b60006012905090565b610469828261086d565b5050565b806104773361051d565b10156104b8576040517f08c379a00000000000000000000000000000000000000000000000000000000081526004016104af90611079565b60405180910390fd5b6104c3338383610779565b80600560008473ffffffffffffffffffffffffffffffffffffffff1673ffffffffffffffffffffffffffffffffffffffff168152602001908152602001600020600082825461051291906110c8565b925050819055505050565b60008060008373ffffffffffffffffffffffffffffffffffffffff1673ffffffffffffffffffffffffffffffffffffffff168152602001908152602001600020549050919050565b60606004805461057490610ffc565b80601f01602080910402602001604051908101604052809291908181526020018280546105a090610ffc565b80156105ed5780601f106105c2576101008083540402835291602001916105ed565b820191906000526020600020905b8154815290600101906020018083116105d057829003601f168201915b5050505050905090565b60056020528060005260406000206000915090505481565b60008061061a6106cb565b9050610627818585610779565b600191505092915050565b6000600160008473ffffffffffffffffffffffffffffffffffffffff1673ffffffffffffffffffffffffffffffffffffffff16815260200190815260200160002060008373ffffffffffffffffffffffffffffffffffffffff1673ffffffffffffffffffffffffffffffffffffffff16815260200190815260200160002054905092915050565b60006106c48261051d565b9050919050565b600033905090565b6106e083838360016108ef565b505050565b60006106f18484610632565b90507fffffffffffffffffffffffffffffffffffffffffffffffffffffffffffffffff81146107735781811015610763578281836040517ffb8f41b200000000000000000000000000000000000000000000000000000000815260040161075a9392919061110b565b60405180910390fd5b610772848484840360006108ef565b5b50505050565b600073ffffffffffffffffffffffffffffffffffffffff168373ffffffffffffffffffffffffffffffffffffffff16036107eb5760006040517f96c6fd1e0000000000000000000000000000000000000000000000000000000081526004016107e29190611142565b60405180910390fd5b600073ffffffffffffffffffffffffffffffffffffffff168273ffffffffffffffffffffffffffffffffffffffff160361085d5760006040517fec442f050000000000000000000000000000000000000000000000000000000081526004016108549190611142565b60405180910390fd5b610868838383610ac6565b505050565b600073ffffffffffffffffffffffffffffffffffffffff168273ffffffffffffffffffffffffffffffffffffffff16036108df5760006040517fec442f050000000000000000000000000000000000000000000000000000000081526004016108d69190611142565b60405180910390fd5b6108eb60008383610ac6565b5050565b600073ffffffffffffffffffffffffffffffffffffffff168473ffffffffffffffffffffffffffffffffffffffff16036109615760006040517fe602df050000000000000000000000000000000000000000000000000000000081526004016109589190611142565b60405180910390fd5b600073ffffffffffffffffffffffffffffffffffffffff168373ffffffffffffffffffffffffffffffffffffffff16036109d35760006040517f94280d620000000000000000000000000000000000000000000000000000000081526004016109ca9190611142565b60405180910390fd5b81600160008673ffffffffffffffffffffffffffffffffffffffff1673ffffffffffffffffffffffffffffffffffffffff16815260200190815260200160002060008573ffffffffffffffffffffffffffffffffffffffff1673ffffffffffffffffffffffffffffffffffffffff168152602001908152602001600020819055508015610ac0578273ffffffffffffffffffffffffffffffffffffffff168473ffffffffffffffffffffffffffffffffffffffff167f8c5be1e5ebec7d5bd14f71427d1e84f3dd0314c0f7b2291e5b200ac8c7c3b92584604051610ab79190610d94565b60405180910390a35b50505050565b600073ffffffffffffffffffffffffffffffffffffffff168373ffffffffffffffffffffffffffffffffffffffff1603610b18578060026000828254610b0c91906110c8565b92505081905550610beb565b60008060008573ffffffffffffffffffffffffffffffffffffffff1673ffffffffffffffffffffffffffffffffffffffff16815260200190815260200160002054905081811015610ba4578381836040517fe450d38c000000000000000000000000000000000000000000000000000000008152600401610b9b9392919061110b565b60405180910390fd5b8181036000808673ffffffffffffffffffffffffffffffffffffffff1673ffffffffffffffffffffffffffffffffffffffff16815260200190815260200160002081905550505b600073ffffffffffffffffffffffffffffffffffffffff168273ffffffffffffffffffffffffffffffffffffffff1603610c345780600260008282540392505081905550610c81565b806000808473ffffffffffffffffffffffffffffffffffffffff1673ffffffffffffffffffffffffffffffffffffffff168152602001908152602001600020600082825401925050819055505b8173ffffffffffffffffffffffffffffffffffffffff168373ffffffffffffffffffffffffffffffffffffffff167fddf252ad1be2c89b69c2b068fc378daa952ba7f163c4a11628f55a4df523b3ef83604051610cde9190610d94565b60405180910390a3505050565b600080fd5b600073ffffffffffffffffffffffffffffffffffffffff82169050919050565b6000610d1b82610cf0565b9050919050565b610d2b81610d10565b8114610d3657600080fd5b50565b600081359050610d4881610d22565b92915050565b600060208284031215610d6457610d63610ceb565b5b6000610d7284828501610d39565b91505092915050565b6000819050919050565b610d8e81610d7b565b82525050565b6000602082019050610da96000830184610d85565b92915050565b600081519050919050565b600082825260208201905092915050565b60005b83811015610de9578082015181840152602081019050610dce565b60008484015250505050565b6000601f19601f8301169050919050565b6000610e1182610daf565b610e1b8185610dba565b9350610e2b818560208601610dcb565b610e3481610df5565b840191505092915050565b60006020820190508181036000830152610e598184610e06565b905092915050565b610e6a81610d7b565b8114610e7557600080fd5b50565b600081359050610e8781610e61565b92915050565b60008060408385031215610ea457610ea3610ceb565b5b6000610eb285828601610d39565b9250506020610ec385828601610e78565b9150509250929050565b60008115159050919050565b610ee281610ecd565b82525050565b6000602082019050610efd6000830184610ed9565b92915050565b600080600060608486031215610f1c57610f1b610ceb565b5b6000610f2a86828701610d39565b9350506020610f3b86828701610d39565b9250506040610f4c86828701610e78565b9150509250925092565b600060ff82169050919050565b610f6c81610f56565b82525050565b6000602082019050610f876000830184610f63565b92915050565b60008060408385031215610fa457610fa3610ceb565b5b6000610fb285828601610d39565b9250506020610fc385828601610d39565b9150509250929050565b7f4e487b7100000000000000000000000000000000000000000000000000000000600052602260045260246000fd5b6000600282049050600182168061101457607f821691505b60208210810361102757611026610fcd565b5b50919050565b7f496e73756666696369656e742062616c616e63652e0000000000000000000000600082015250565b6000611063601583610dba565b915061106e8261102d565b602082019050919050565b6000602082019050818103600083015261109281611056565b9050919050565b7f4e487b7100000000000000000000000000000000000000000000000000000000600052601160045260246000fd5b60006110d382610d7b565b91506110de83610d7b565b92508282019050808211156110f6576110f5611099565b5b92915050565b61110581610d10565b82525050565b600060608201905061112060008301866110fc565b61112d6020830185610d85565b61113a6040830184610d85565b949350505050565b600060208201905061115760008301846110fc565b9291505056fea26469706673582212208878dd9732ea76ad69d65247446f6c78d2d6e985589ebafecd44736472d9fd1664736f6c63430008180033",
  "linkReferences": {},
  "deployedLinkReferences": {}
}